:020000040800F2
:1000000008070020CD0100080904000801040008C9
:10001000050400087F0200089D0C00080000000095
:10002000000000000000000000000000C5060008FD
:10003000830200080000000091040008D9070008AE
:10004000E7010008E7010008E7010008E7010008F0
:10005000E7010008E7010008E7010008E7010008E0
:10006000E7010008E7010008E7010008E7010008D0
:10007000E7010008E7010008E7010008E7010008C0
:10008000E7010008E7010008E7010008E7010008B0
:10009000E7010008E7010008E7010008E7010008A0
:1000A000E7010008E7010008E7010008E701000890
:1000B0003D080008E7010008E7010008E701000823
:1000C000E7010008E7010008E7010008E701000870
:1000D000E7010008D5090008E7010008E70100086A
:1000E000E7010008E7010008E7010008E701000850
:1000F000E7010008E7010008E7010008E701000840
:10010000E7010008E7010008E7010008E70100082F
:10011000E7010008E7010008E7010008E70100081F
:10012000E7010008E7010008E7010008E70100080F
:1001300000F002F800F03AF80AA090E8000C8244BF
:100140008344AAF10107DA4501D100F02FF8AFF29C
:10015000090EBAE80F0013F0010F18BFFB1A43F0A5
:1001600001031847A80F0000C80F0000103A24BF71
:1001700078C878C1FAD8520724BF30C830C144BF0C
:1001800004680C607047000000230024002500264E
:10019000103A28BF78C1FBD8520728BF30C148BFEA
:1001A0000B6070471FB51FBD10B510BD00F031F8D2
:1001B0001146FFF7F7FF00F095FD00F04FF803B48C
:1001C000FFF7F2FF03BC00F053F800000948804736
:1001D00009480047FEE7FEE7FEE7FEE7FEE7FEE729
:1001E000FEE7FEE7FEE7FEE704480549054A064B41
:1001F00070470000DD0700083101000808010020F9
:1002000008070020080300200803002070477047FB
:100210007047754600F028F8AE460500694653461B
:1002200020F00700854618B020B5FFF7DDFFBDE8D8
:1002300020404FF000064FF000074FF000084FF04D
:10024000000B21F00701AC46ACE8C009ACE8C009DE
:10025000ACE8C009ACE8C0098D4670470446AFF36E
:1002600000802046FFF7ABFF00487047A400002045
:1002700001491820ABBEFEE726000200704700BF10
:10028000FEE770472DE9F0410246002500260020D8
:1002900000230024002791F803C00CF00F0591F80B
:1002A00003C00CF0100CBCF1000F03D091F802C099
:1002B0004CEA050591F800C0BCF1000F31D014687C
:1002C00000202BE04FF0010C0CFA00F3B1F800C055
:1002D0000CEA03069E4220D183004FF00F0C0CFA6B
:1002E00003F7BC4305FA03FC4CEA040491F803C08D
:1002F000BCF1280F06D14FF0010C0CFA00FCC2F83B
:1003000014C00AE091F803C0BCF1480F05D14FF0CA
:10031000010C0CFA00FCC2F810C0401C0828D1D314
:100320001460B1F800C0BCF1FF0F34DD5468002048
:100330002EE000F1080C4FF0010808FA0CF3B1F8B8
:1003400000C00CEA03069E4221D183004FF00F0C3F
:100350000CFA03F7BC4305FA03FC4CEA040491F8D9
:1003600003C0BCF1280F05D100F1080C08FA0CF805
:10037000C2F8148091F803C0BCF1480F07D100F116
:10038000080C4FF0010808FA0CF8C2F81080401C65
:100390000828CED35460BDE8F08102460020D3681F
:1003A0000B400BB1012000E0002070474161704715
:1003B0000161704708B50121042000F07BF840205E
:1003C000ADF8000010208DF8030003208DF8020026
:1003D00069460A48FFF756FF8020ADF8000010205C
:1003E0008DF8030003208DF8020069460348FFF7EB
:1003F00049FF80210148FFF7D9FF08BD00080140EF
:1004000000BFFEE700BFFEE77047000070B50021A7
:1004100000230F22C47804B3154C246804F4E0646C
:10042000C4F5E064210AC1F10403CA40447804FA27
:1004300003F184781440214309010E4C0678A1553C
:10044000047804F01F050124AC4005786D11AD005F
:1004500005F1E025C5F8004109E0047804F01F0526
:100460000124AC40044D0678761145F8264070BD55
:100470000CED00E000E400E080E100E0024901430F
:10048000024A1160704700000000FA050CED00E020
:100490007047000029B1064AD2690243044BDA6171
:1004A00004E0034AD2698243014BDA6170470000DD
:1004B0000010024029B1064A92690243044B9A6136
:1004C00004E0034A92698243014B9A61704700003D
:1004D0000010024030B500210022002400232D4DE1
:1004E0006D6805F00C0121B1042905D0082923D13C
:1004F00005E0294D056022E0274D05601FE0254DF0
:100500006D6805F47012234D6D6805F48034022582
:1005100005EB92421CB9214D554305600BE01D4D82
:100520006D6805F400351DB11C4D5543056002E0B2
:10053000194D5543056002E0174D056000BF00BF2F
:10054000144D6D6805F0F0010909154D6B5C0568E7
:10055000DD4045600F4D6D6805F4E061090A104DFE
:100560006B5C4568DD4085600A4D6D6805F460513F
:10057000C90A0B4D6B5C4568DD40C560054D6D6873
:1005800005F44041890B074D6B5CC568B5FBF3F57D
:10059000056130BD0010024000127A0000093D00E4
:1005A000140000202400002010B586B0044601216C
:1005B0008803FFF77FFF01210420FFF77BFF4FF443
:1005C0000070ADF8140018208DF8170003208DF886
:1005D000160005A92448FFF755FE4FF48060ADF8DA
:1005E000140004208DF8170005A91F48FFF74AFEE4
:1005F00001940020ADF80800ADF80A00ADF80C0039
:10060000ADF810000C20ADF80E0001A9174800F05D
:100610006DFA25208DF8000003208DF801000220DE
:100620008DF8020001208DF803006846FFF7EEFE0A
:10063000012240F225510D4800F033FA01210B4808
:1006400000F0ECF91020ADF814008DF8170003202D
:100650008DF8160005A90448FFF714FE1021024882
:10066000FFF7A4FE06B010BD0008014000380140AD
:1006700070B505460E4601200F49086000240CE0C5
:1006800000BF40210D4800F0D5F90028F9D0295DC0
:100690000A4800F09CFA601CC4B2B442F0DB00BF10
:1006A0004021064800F0C6F90028F9D0002004498E
:1006B00008700149086070BD900121420038014076
:1006C0003C000020704710B500F002F810BD00009B
:1006D0000CB50020019000903348006840F4803051
:1006E0003149086000BF3048006800F400300090D5
:1006F0000198401C0190009818B90198B0F5A06FBE
:10070000F1D12948006800F4003010B101200090B8
:1007100001E0002000900098012843D123480068A0
:1007200040F01000214908600846006820F00300EE
:1007300008600846006840F0020008601A484068F7
:10074000194948600846406848600846406840F4D7
:10075000806048600846406820F47C104860084685
:10076000406840F4E81048600846006840F0807037
:10077000086000BF0C48006800F000700028F9D045
:100780000948406820F0030007494860084640686F
:1007900040F00200486000BF0348406800F00C00D1
:1007A0000828F9D10CBD00000010024000200240D2
:1007B000042808D14FF0E021096941F004014FF00D
:1007C000E022116107E04FF0E021096921F0040106
:1007D0004FF0E022116170477047000010B51348D8
:1007E000006840F00100114908600846406810495F
:1007F00008400E494860084600680E4908400B4909
:1008000008600846006820F48020086008464068B8
:1008100020F4FE0048604FF41F008860FFF753FF8C
:100820004FF000600449086010BD00000010024055
:100830000000FFF8FFFFF6FE08ED00E010B5002411
:100840000121880700F058F888B10121880700F0DD
:1008500044F840210648FFF7A0FD20B1402104489C
:10086000FFF7A4FD03E040210148FFF7A1FD10BD03
:10087000000801407FB505460C4601210846FFF7F8
:1008800009FEADF80850ADF804400020ADF80A00AC
:10089000ADF8060001A94FF0804000F049F80121B1
:1008A000880700F01AF801221146900700F035F889
:1008B0001C208DF8000001208DF8010003208DF828
:1008C000020001208DF803006846FFF79FFD00211C
:1008D0004FF0804000F004F87FBDCA4302827047A9
:1008E00021B1028842F00102028004E002884FF642
:1008F000FE731A400280704730B502460020002384
:100900000024158A05EA0103958905EA010413B15B
:100910000CB1012000E0002030BD1AB183890B43E7
:10092000838102E083898B43838170478184704790
:10093000002202881D4B98420ED01D4B98420BD0CE
:10094000B0F1804F08D01B4B984205D01A4B98420B
:1009500002D01A4B984204D14FF68F731A404B883D
:100960001A43174B984207D0164B984204D04FF6C3
:10097000FF431A40CB881A4302808B8883850B88FB
:1009800003850A4B98420BD0094B984208D00E4B76
:10099000984205D00D4B984202D00D4B984201D1A0
:1009A0000B7A03860123838270470000002C0140EC
:1009B000003401400004004000080040000C0040EA
:1009C000001000400014004000400140004401407D
:1009D0000048014010B540F225510C4800F037F8AE
:1009E00098B10A4800F0EEF8C4B2094800783228FD
:1009F00008DA084806490978445405480078401C3C
:100A00000349087001200449087010BD00380140F6
:100A10003C000020400000203E00002021B18289DF
:100A200042F40052828104E082894DF6FF731A403D
:100A30008281704702460020B1F5007F00D100BFDF
:100A400013880B400BB1012000E00020704770B507
:100A50000246002400230025002040F66A16B14219
:100A600000D100BFC1F3421501F01F03012606FAB1
:100A700003F3012D02D19689334006E0022D02D105
:100A8000168A334001E0968A33400C12012606FA9A
:100A900004F41688344013B10CB1012000E00020AA
:100AA00070BDF0B50346002400260025002040F666
:100AB0006A17B94200D100BF1846C1F3421401F0D1
:100AC0001F06012707FA06F5012C01D10C3004E0BE
:100AD000022C01D1103000E014301AB107682F4306
:100AE000076002E00768AF430760F0BD2DE9F047FB
:100AF00086B005460E460024A24600BFA146002748
:100B0000B08900B100BF2F462C8A4CF6FF7004401C
:100B1000F08804432C82AC894EF6F3100440B08870
:100B200031890843718908430443AC81AC8A4FF68C
:100B3000FF400440B0890443AC8201A8FFF7CAFC1F
:100B40001F48874202D1DDF810A001E0DDF80CA0BB
:100B5000A88900F4004040B10AEBCA0000EB0A107B
:100B600031684900B0FBF1F807E00AEBCA0000EB7E
:100B70000A1031688900B0FBF1F86420B8FBF0F08E
:100B800004012009642101FB1089A88900F40040B8
:100B900040B1322000EBC900B0FBF1F000F00700DB
:100BA000044308E0322000EB09106421B0FBF1F0AF
:100BB00000F00F0004432C8106B0BDE8F087000070
:100BC0000038014001468888C0F308007047C1F32F
:100BD00008028280704700002DE9F04128484078E3
:100BE00028490978884248D125480078FD283DD118
:100BF00023480079012802D0022830D129E020487A
:100C00008078214908601E49C87800F013FA06462A
:100C100032460B4600201D4900F0B4F8044600F0AF
:100C20007FF81B4908601648807820B18021194858
:100C3000FFF7BEFB03E080211648FFF7B7FB00215A
:100C40004FF08040FFF772FE01218807FFF748FE52
:100C500005E000214FF08040FFF742FE00BF00BFDB
:100C6000084801780648FFF703FD00E000BF00BF19
:100C700000200449087008490860BDE8F0810000C0
:100C8000400000203C00002034000020008076401E
:100C90002C000020000801409001214200BFFEE727
:100CA00010B56FF00400FFF783FD0A4800680A4999
:100CB000B0FBF1F0094908700846007800EB4001EC
:100CC000C1EBC0104FF6FF7101EAC0000449088073
:100CD00010BD00000000002000127A002800002053
:100CE0002A000020FFF7DCFF4FF4A060FFF7C6FBEF
:100CF000FFF760FB4FF4E130FFF756FC41F61F4170
:100D00000120FFF7B7FD07E00448007820B1FFF7A6
:100D100063FF002001490870F6E700003E00002054
:100D200021F00042A2F16052B2F5801F01F00043B1
:100D300028BFD2F17F6C0BD95FEA001C43EAC202E4
:100D400042EB507018BF704728BF20F00100704779
:100D5000B2F5801FBCBF184670474FEA410C1CF526
:100D6000001F02D2084600F0CCB970B500F075F94A
:100D700000000089FFF7F6BF4FF00040A0F58000AB
:100D8000704700002DE9C04130B4DFF8A0C23CEA52
:100D9000111418BF3CEA131400F0EC8081EA03053B
:100DA0001CEA111444EAD57418BF1CEA131500F0AC
:100DB000C780A4EB05044FF0004545EAC12145EA90
:100DC000C32341EA505143EA525304F17F749942DC
:100DD00004F500344FEAC0204FEAC22208BF904217
:100DE00000F09C804FEA13650FF24016765D4FEAE3
:100DF000134506FB05F7C7F1807706FB07F74FEAB7
:100E0000D737A7FB03687642C8F58038A7FB06CE24
:100E100038BFA8F1010807FB08E64FF0000EA6FB5B
:100E2000028CE6FB03CEDCF1000CCEF1004E38BFA5
:100E3000AEF1010EA6FB0C584FF000074FF0000575
:100E4000E6FB0E87A1FB08C6A0FB07CE16EB0E063D
:100E500045F10005E1FB076515F1E04E7EBFA4F505
:100E600080345FEA46066D4116F1800745F10005C2
:100E70004FEA17274FEA066647EA0567A6F1DE46FE
:100E8000B6F1805F4FEA15251FD9384624F0010CD2
:100E900005EBC471BCF1FE6F01EB0C1102D8F0BC84
:100EA000BDE8008124425CBF01F5801E9EEAC47F3C
:100EB00002D4F0BCBDE80081244238D4F0BCA1F1DA
:100EC000C041BDE8004100F016B94FEAD22242EA23
:100ED00043524FEAD323A7FB02864FEAD02040EAD1
:100EE000415007FB03661EEA0E0F4FEAD12105FBB6
:100EF000026658BFA6EB0056B6EB00564FEA520EFC
:100F00004EEAC37E18EB0E0E56EB530EBDD518EB12
:100F100002085E417F1C55F10005B6E74FF48015CD
:100F20004FF000074FF000064FF00008ADE7F0BCAF
:100F30004FF0000001F1C04101F00041BDE8008127
:100F400011EA0C1F0CEA131500D00CE013EA0C1F79
:100F500000F025804FF00000F0BC81EA030101F0B1
:100F60000041BDE80081F0BCBDE8004181EA030119
:100F700000F0C1B8F0BCBDE8004170B500F06DF8FC
:100F8000097EFC3E00F007B881EA03014FF0000043
:100F900001F00041704781EA030100F0ACB8F0BCF9
:100FA000BDE800414FF0000021497047FFFDFBF90B
:100FB000F7F5F4F2F0EEEDEBE9E8E6E4E3E1E0DE8C
:100FC000DDDBDAD8D7D5D4D3D1D0CFCDCCCBCAC8FE
:100FD000C7C6C5C4C2C1C0BFBEBDBCBBBAB9B8B725
:100FE000B6B5B4B3B2B1B0AFAEADACABAAA9A8A818
:100FF000A7A6A5A4A3A3A2A1A09F9F9E9D9C9C9BE6
:101000009A99999897979695959493939291919090
:101010008F8F8E8E8D8C8C8B8B8A89898888878721
:101020008685858484838382828181800000FF0796
:101030000000F87FB0FA80F310FA03F10AD0C3F190
:101040001D0303F580634FEA41504FEA035202EB60
:10105000D12170474FF0000070470EF1020E2EF0C4
:10106000030E5EF8046B364205D4012A43EB0305F8
:1010700015F5001F12D8012841EB010C1CF5001FCB
:101080000CD80ED14FEAD17C15F5001F0CEB4C0C9F
:101090000CF1020C08BF4CEBD37C04E04FF0080CC1
:1010A00001E04FEAD37C0CEB4C0526FA05F606F07E
:1010B0000706B6F1040C06D20EEB860CBDE87040B4
:1010C0004CF0010C6047DFE80CF0090B02024FF016
:1010D00000414FF00000A1F5002170BD19461046F7
:1010E000012851EB010418BFD4F5001484BF00207F
:1010F00001F0004170BD0808A0F500114FEA310170
:101100007047FF2141EAD050C00570472C110008FC
:1011100000000020400000006C0100086C11000875
:1011200040000020C80600008801000800A24A0410
:101130000000000000000000010203040607080987
:10114000000000000102030401020304060708096D
:1011500002040608000000006666E63F000000008A
:0C11600000000000000000000000000083
:0400000508000131BD
:00000001FF
